{
  "contractName": "Token",
  "abi": [
    {
      "inputs": [],
      "stateMutability": "nonpayable",
      "type": "constructor"
    },
    {
      "inputs": [
        {
          "internalType": "uint256",
          "name": "request",
          "type": "uint256"
        },
        {
          "internalType": "uint256",
          "name": "available",
          "type": "uint256"
        }
      ],
      "name": "balanceError",
      "type": "error"
    },
    {
      "anonymous": false,
      "inputs": [
        {
          "indexed": true,
          "internalType": "address",
          "name": "account",
          "type": "address"
        },
        {
          "indexed": false,
          "internalType": "uint256",
          "name": "newBalance",
          "type": "uint256"
        }
      ],
      "name": "BalanceSet",
      "type": "event"
    },
    {
      "anonymous": false,
      "inputs": [
        {
          "indexed": true,
          "internalType": "address",
          "name": "sender",
          "type": "address"
        },
        {
          "indexed": true,
          "internalType": "address",
          "name": "receiver",
          "type": "address"
        },
        {
          "indexed": false,
          "internalType": "uint256",
          "name": "amount",
          "type": "uint256"
        }
      ],
      "name": "FundsSent",
      "type": "event"
    },
    {
      "inputs": [
        {
          "internalType": "address",
          "name": "",
          "type": "address"
        }
      ],
      "name": "balances",
      "outputs": [
        {
          "internalType": "uint256",
          "name": "",
          "type": "uint256"
        }
      ],
      "stateMutability": "view",
      "type": "function",
      "constant": true
    },
    {
      "inputs": [],
      "name": "minter",
      "outputs": [
        {
          "internalType": "address",
          "name": "",
          "type": "address"
        }
      ],
      "stateMutability": "view",
      "type": "function",
      "constant": true
    },
    {
      "inputs": [
        {
          "internalType": "uint256",
          "name": "amount",
          "type": "uint256"
        }
      ],
      "name": "setBalance",
      "outputs": [],
      "stateMutability": "nonpayable",
      "type": "function"
    },
    {
      "inputs": [
        {
          "internalType": "address",
          "name": "receiver",
          "type": "address"
        },
        {
          "internalType": "uint256",
          "name": "amount",
          "type": "uint256"
        }
      ],
      "name": "send",
      "outputs": [],
      "stateMutability": "nonpayable",
      "type": "function"
    }
  ],
  "bytecode": "0x608060405234801561001057600080fd5b50336000806101000a81548173ffffffffffffffffffffffffffffffffffffffff021916908373ffffffffffffffffffffffffffffffffffffffff160217905550610764806100606000396000f3fe608060405234801561001057600080fd5b506004361061004c5760003560e01c8063075461721461005157806327e235e31461006f578063d0679d341461009f578063fb1669ca146100bb575b600080fd5b6100596100d7565b604051610066919061043f565b60405180910390f35b6100896004803603810190610084919061048b565b6100fb565b60405161009691906104d1565b60405180910390f35b6100b960048036038101906100b49190610518565b610113565b005b6100d560048036038101906100d09190610558565b6102f6565b005b60008054906101000a900473ffffffffffffffffffffffffffffffffffffffff1681565b60016020528060005260406000206000915090505481565b8173ffffffffffffffffffffffffffffffffffffffff163373ffffffffffffffffffffffffffffffffffffffff1603610181576040517f08c379a0000000000000000000000000000000000000000000000000000000008152600401610178906105e2565b60405180910390fd5b600160003373ffffffffffffffffffffffffffffffffffffffff1673ffffffffffffffffffffffffffffffffffffffff168152602001908152602001600020548111156102465780600160003373ffffffffffffffffffffffffffffffffffffffff1673ffffffffffffffffffffffffffffffffffffffff168152602001908152602001600020546040517f0f2ecb2500000000000000000000000000000000000000000000000000000000815260040161023d929190610602565b60405180910390fd5b80600160003373ffffffffffffffffffffffffffffffffffffffff1673ffffffffffffffffffffffffffffffffffffffff1681526020019081526020016000206000828254610295919061065a565b9250508190555080600160008473ffffffffffffffffffffffffffffffffffffffff1673ffffffffffffffffffffffffffffffffffffffff16815260200190815260200160002060008282546102eb919061068e565b925050819055505050565b60008054906101000a900473ffffffffffffffffffffffffffffffffffffffff1673ffffffffffffffffffffffffffffffffffffffff163373ffffffffffffffffffffffffffffffffffffffff1614610384576040517f08c379a000000000000000000000000000000000000000000000000000000000815260040161037b9061070e565b60405180910390fd5b80600160008060009054906101000a900473ffffffffffffffffffffffffffffffffffffffff1673ffffffffffffffffffffffffffffffffffffffff1673ffffffffffffffffffffffffffffffffffffffff16815260200190815260200160002060008282546103f4919061068e565b9250508190555050565b600073ffffffffffffffffffffffffffffffffffffffff82169050919050565b6000610429826103fe565b9050919050565b6104398161041e565b82525050565b60006020820190506104546000830184610430565b92915050565b600080fd5b6104688161041e565b811461047357600080fd5b50565b6000813590506104858161045f565b92915050565b6000602082840312156104a1576104a061045a565b5b60006104af84828501610476565b91505092915050565b6000819050919050565b6104cb816104b8565b82525050565b60006020820190506104e660008301846104c2565b92915050565b6104f5816104b8565b811461050057600080fd5b50565b600081359050610512816104ec565b92915050565b6000806040838503121561052f5761052e61045a565b5b600061053d85828601610476565b925050602061054e85828601610503565b9150509250929050565b60006020828403121561056e5761056d61045a565b5b600061057c84828501610503565b91505092915050565b600082825260208201905092915050565b7f53656e64657220616e642072656365697665722063616e27742073616d652e00600082015250565b60006105cc601f83610585565b91506105d782610596565b602082019050919050565b600060208201905081810360008301526105fb816105bf565b9050919050565b600060408201905061061760008301856104c2565b61062460208301846104c2565b9392505050565b7f4e487b7100000000000000000000000000000000000000000000000000000000600052601160045260246000fd5b6000610665826104b8565b9150610670836104b8565b92508282039050818111156106885761068761062b565b5b92915050565b6000610699826104b8565b91506106a4836104b8565b92508282019050808211156106bc576106bb61062b565b5b92915050565b7f416c6c6f7720666f72206f776e65720000000000000000000000000000000000600082015250565b60006106f8600f83610585565b9150610703826106c2565b602082019050919050565b60006020820190508181036000830152610727816106eb565b905091905056fea2646970667358221220a8c51b29dbf9cbcbd3904cdec3eb4d82287cffd77ba3c174a494b1d775ca77aa64736f6c63430008130033",
  "immutableReferences": {},
  "source": "// SPDX-License-Identifier: UNLICENSED\r\n\r\npragma solidity >=0.4.0 <0.9.0;\r\n\r\ncontract Token {\r\n    address public minter;\r\n    mapping(address => uint) public balances;\r\n\r\n    constructor() {\r\n        minter = msg.sender;\r\n    }\r\n\r\n    // create event\r\n    event BalanceSet(address indexed account, uint newBalance);\r\n    event FundsSent(\r\n        address indexed sender,\r\n        address indexed receiver,\r\n        uint amount\r\n    );\r\n\r\n    // create modifier\r\n    modifier isOwner() {\r\n        require(msg.sender == minter, \"Allow for owner\");\r\n        _;\r\n    }\r\n\r\n    // set balance\r\n    function setBalance(uint amount) public isOwner {\r\n        balances[minter] += amount;\r\n    }\r\n\r\n    // generate custom error\r\n    error balanceError(uint request, uint available);\r\n\r\n    // send balance\r\n    function send(address receiver, uint amount) public {\r\n        if (msg.sender == receiver) {\r\n            revert(\"Sender and receiver can't same.\");\r\n        }\r\n        // check balance is exist\r\n        if (amount > balances[msg.sender]) {\r\n            revert balanceError({\r\n                request: amount,\r\n                available: balances[msg.sender]\r\n            });\r\n        }\r\n        balances[msg.sender] -= amount;\r\n        balances[receiver] += amount;\r\n    }\r\n}\r\n",
  "sourcePath": "C:\\Users\\shami\\Downloads\\Project\\Blockchain\\project-template\\contracts\\Token.sol",
  "compiler": {
    "name": "solc",
    "version": "0.8.19+commit.7dd6d404.Emscripten.clang"
  },
  "schemaVersion": "3.4.15",
  "updatedAt": "2023-08-19T16:32:22.053Z",
  "networkType": "ethereum",
  "devdoc": {
    "kind": "dev",
    "methods": {},
    "version": 1
  },
  "userdoc": {
    "kind": "user",
    "methods": {},
    "version": 1
  }
}