{
  "contractName": "Token",
  "abi": [
    {
      "inputs": [],
      "stateMutability": "nonpayable",
      "type": "constructor"
    },
    {
      "inputs": [
        {
          "internalType": "uint256",
          "name": "request",
          "type": "uint256"
        },
        {
          "internalType": "uint256",
          "name": "available",
          "type": "uint256"
        }
      ],
      "name": "balanceError",
      "type": "error"
    },
    {
      "anonymous": false,
      "inputs": [
        {
          "indexed": true,
          "internalType": "address",
          "name": "account",
          "type": "address"
        },
        {
          "indexed": false,
          "internalType": "uint256",
          "name": "newBalance",
          "type": "uint256"
        }
      ],
      "name": "BalanceSet",
      "type": "event"
    },
    {
      "anonymous": false,
      "inputs": [
        {
          "indexed": true,
          "internalType": "address",
          "name": "sender",
          "type": "address"
        },
        {
          "indexed": true,
          "internalType": "address",
          "name": "receiver",
          "type": "address"
        },
        {
          "indexed": false,
          "internalType": "uint256",
          "name": "amount",
          "type": "uint256"
        }
      ],
      "name": "FundsSent",
      "type": "event"
    },
    {
      "inputs": [
        {
          "internalType": "address",
          "name": "",
          "type": "address"
        }
      ],
      "name": "balances",
      "outputs": [
        {
          "internalType": "uint256",
          "name": "",
          "type": "uint256"
        }
      ],
      "stateMutability": "view",
      "type": "function"
    },
    {
      "inputs": [],
      "name": "minter",
      "outputs": [
        {
          "internalType": "address",
          "name": "",
          "type": "address"
        }
      ],
      "stateMutability": "view",
      "type": "function"
    },
    {
      "inputs": [
        {
          "internalType": "uint256",
          "name": "amount",
          "type": "uint256"
        }
      ],
      "name": "setBalance",
      "outputs": [],
      "stateMutability": "nonpayable",
      "type": "function"
    },
    {
      "inputs": [
        {
          "internalType": "address",
          "name": "receiver",
          "type": "address"
        },
        {
          "internalType": "uint256",
          "name": "amount",
          "type": "uint256"
        }
      ],
      "name": "send",
      "outputs": [],
      "stateMutability": "nonpayable",
      "type": "function"
    }
  ],
  "bytecode": "0x608060405234801561000f575f80fd5b50335f806101000a81548173ffffffffffffffffffffffffffffffffffffffff021916908373ffffffffffffffffffffffffffffffffffffffff16021790555061072d8061005c5f395ff3fe608060405234801561000f575f80fd5b506004361061004a575f3560e01c8063075461721461004e57806327e235e31461006c578063d0679d341461009c578063fb1669ca146100b8575b5f80fd5b6100566100d4565b6040516100639190610427565b60405180910390f35b6100866004803603810190610081919061046e565b6100f7565b60405161009391906104b1565b60405180910390f35b6100b660048036038101906100b191906104f4565b61010c565b005b6100d260048036038101906100cd9190610532565b6102e5565b005b5f8054906101000a900473ffffffffffffffffffffffffffffffffffffffff1681565b6001602052805f5260405f205f915090505481565b8173ffffffffffffffffffffffffffffffffffffffff163373ffffffffffffffffffffffffffffffffffffffff160361017a576040517f08c379a0000000000000000000000000000000000000000000000000000000008152600401610171906105b7565b60405180910390fd5b60015f3373ffffffffffffffffffffffffffffffffffffffff1673ffffffffffffffffffffffffffffffffffffffff1681526020019081526020015f205481111561023b578060015f3373ffffffffffffffffffffffffffffffffffffffff1673ffffffffffffffffffffffffffffffffffffffff1681526020019081526020015f20546040517f0f2ecb250000000000000000000000000000000000000000000000000000000081526004016102329291906105d5565b60405180910390fd5b8060015f3373ffffffffffffffffffffffffffffffffffffffff1673ffffffffffffffffffffffffffffffffffffffff1681526020019081526020015f205f8282546102879190610629565b925050819055508060015f8473ffffffffffffffffffffffffffffffffffffffff1673ffffffffffffffffffffffffffffffffffffffff1681526020019081526020015f205f8282546102da919061065c565b925050819055505050565b5f8054906101000a900473ffffffffffffffffffffffffffffffffffffffff1673ffffffffffffffffffffffffffffffffffffffff163373ffffffffffffffffffffffffffffffffffffffff1614610372576040517f08c379a0000000000000000000000000000000000000000000000000000000008152600401610369906106d9565b60405180910390fd5b8060015f805f9054906101000a900473ffffffffffffffffffffffffffffffffffffffff1673ffffffffffffffffffffffffffffffffffffffff1673ffffffffffffffffffffffffffffffffffffffff1681526020019081526020015f205f8282546103de919061065c565b9250508190555050565b5f73ffffffffffffffffffffffffffffffffffffffff82169050919050565b5f610411826103e8565b9050919050565b61042181610407565b82525050565b5f60208201905061043a5f830184610418565b92915050565b5f80fd5b61044d81610407565b8114610457575f80fd5b50565b5f8135905061046881610444565b92915050565b5f6020828403121561048357610482610440565b5b5f6104908482850161045a565b91505092915050565b5f819050919050565b6104ab81610499565b82525050565b5f6020820190506104c45f8301846104a2565b92915050565b6104d381610499565b81146104dd575f80fd5b50565b5f813590506104ee816104ca565b92915050565b5f806040838503121561050a57610509610440565b5b5f6105178582860161045a565b9250506020610528858286016104e0565b9150509250929050565b5f6020828403121561054757610546610440565b5b5f610554848285016104e0565b91505092915050565b5f82825260208201905092915050565b7f53656e64657220616e642072656365697665722063616e27742073616d652e005f82015250565b5f6105a1601f8361055d565b91506105ac8261056d565b602082019050919050565b5f6020820190508181035f8301526105ce81610595565b9050919050565b5f6040820190506105e85f8301856104a2565b6105f560208301846104a2565b9392505050565b7f4e487b71000000000000000000000000000000000000000000000000000000005f52601160045260245ffd5b5f61063382610499565b915061063e83610499565b9250828203905081811115610656576106556105fc565b5b92915050565b5f61066682610499565b915061067183610499565b9250828201905080821115610689576106886105fc565b5b92915050565b7f416c6c6f7720666f72206f776e657200000000000000000000000000000000005f82015250565b5f6106c3600f8361055d565b91506106ce8261068f565b602082019050919050565b5f6020820190508181035f8301526106f0816106b7565b905091905056fea2646970667358221220c3b85b00e98c2a06fcfd6676da46c0e2cd12ed0a28700de58eed50b821fcfdae64736f6c63430008150033",
  "immutableReferences": {},
  "source": "// SPDX-License-Identifier: MIT\r\n\r\npragma solidity >=0.4.0 <0.9.0;\r\n\r\ncontract Token {\r\n    address public minter;\r\n    mapping(address => uint) public balances;\r\n\r\n    constructor() {\r\n        minter = msg.sender;\r\n    }\r\n\r\n    // create event\r\n    event BalanceSet(address indexed account, uint newBalance);\r\n    event FundsSent(\r\n        address indexed sender,\r\n        address indexed receiver,\r\n        uint amount\r\n    );\r\n\r\n    // create modifier\r\n    modifier isOwner() {\r\n        require(msg.sender == minter, \"Allow for owner\");\r\n        _;\r\n    }\r\n\r\n    // set balance\r\n    function setBalance(uint amount) public isOwner {\r\n        balances[minter] += amount;\r\n    }\r\n\r\n    // generate custom error\r\n    error balanceError(uint request, uint available);\r\n\r\n    // send balance\r\n    function send(address receiver, uint amount) public {\r\n        if (msg.sender == receiver) {\r\n            revert(\"Sender and receiver can't same.\");\r\n        }\r\n        // check balance is exist\r\n        if (amount > balances[msg.sender]) {\r\n            revert balanceError({\r\n                request: amount,\r\n                available: balances[msg.sender]\r\n            });\r\n        }\r\n        balances[msg.sender] -= amount;\r\n        balances[receiver] += amount;\r\n    }\r\n}\r\n",
  "sourcePath": "C:\\Users\\shami\\Downloads\\Project\\Blockchain\\project-template\\contracts\\Token.sol",
  "compiler": {
    "name": "solc",
    "version": "0.8.21+commit.d9974bed.Emscripten.clang"
  },
  "schemaVersion": "3.4.15",
  "updatedAt": "2023-08-18T15:54:17.184Z",
  "devdoc": {
    "kind": "dev",
    "methods": {},
    "version": 1
  },
  "userdoc": {
    "kind": "user",
    "methods": {},
    "version": 1
  }
}