{
  "contractName": "Token",
  "abi": [
    {
      "inputs": [],
      "stateMutability": "nonpayable",
      "type": "constructor"
    },
    {
      "inputs": [
        {
          "internalType": "uint256",
          "name": "request",
          "type": "uint256"
        },
        {
          "internalType": "uint256",
          "name": "available",
          "type": "uint256"
        }
      ],
      "name": "balanceError",
      "type": "error"
    },
    {
      "anonymous": false,
      "inputs": [
        {
          "indexed": true,
          "internalType": "address",
          "name": "account",
          "type": "address"
        },
        {
          "indexed": false,
          "internalType": "uint256",
          "name": "newBalance",
          "type": "uint256"
        }
      ],
      "name": "BalanceSet",
      "type": "event"
    },
    {
      "anonymous": false,
      "inputs": [
        {
          "indexed": true,
          "internalType": "address",
          "name": "sender",
          "type": "address"
        },
        {
          "indexed": true,
          "internalType": "address",
          "name": "receiver",
          "type": "address"
        },
        {
          "indexed": false,
          "internalType": "uint256",
          "name": "amount",
          "type": "uint256"
        }
      ],
      "name": "FundsSent",
      "type": "event"
    },
    {
      "inputs": [
        {
          "internalType": "address",
          "name": "",
          "type": "address"
        }
      ],
      "name": "balances",
      "outputs": [
        {
          "internalType": "uint256",
          "name": "",
          "type": "uint256"
        }
      ],
      "stateMutability": "view",
      "type": "function",
      "constant": true
    },
    {
      "inputs": [],
      "name": "minter",
      "outputs": [
        {
          "internalType": "address",
          "name": "",
          "type": "address"
        }
      ],
      "stateMutability": "view",
      "type": "function",
      "constant": true
    },
    {
      "inputs": [
        {
          "internalType": "uint256",
          "name": "amount",
          "type": "uint256"
        }
      ],
      "name": "setBalance",
      "outputs": [],
      "stateMutability": "nonpayable",
      "type": "function"
    },
    {
      "inputs": [
        {
          "internalType": "address",
          "name": "wallet",
          "type": "address"
        }
      ],
      "name": "getBalance",
      "outputs": [
        {
          "internalType": "uint256",
          "name": "",
          "type": "uint256"
        }
      ],
      "stateMutability": "view",
      "type": "function",
      "constant": true
    },
    {
      "inputs": [
        {
          "internalType": "address",
          "name": "receiver",
          "type": "address"
        },
        {
          "internalType": "uint256",
          "name": "amount",
          "type": "uint256"
        }
      ],
      "name": "send",
      "outputs": [],
      "stateMutability": "nonpayable",
      "type": "function"
    }
  ],
  "bytecode": "0x608060405234801561001057600080fd5b50336000806101000a81548173ffffffffffffffffffffffffffffffffffffffff021916908373ffffffffffffffffffffffffffffffffffffffff1602179055506064600160003373ffffffffffffffffffffffffffffffffffffffff1673ffffffffffffffffffffffffffffffffffffffff16815260200190815260200160002081905550610856806100a56000396000f3fe608060405234801561001057600080fd5b50600436106100575760003560e01c8063075461721461005c57806327e235e31461007a578063d0679d34146100aa578063f8b2cb4f146100c6578063fb1669ca146100f6575b600080fd5b610064610112565b6040516100719190610531565b60405180910390f35b610094600480360381019061008f919061057d565b610136565b6040516100a191906105c3565b60405180910390f35b6100c460048036038101906100bf919061060a565b61014e565b005b6100e060048036038101906100db919061057d565b610331565b6040516100ed91906105c3565b60405180910390f35b610110600480360381019061010b919061064a565b61037a565b005b60008054906101000a900473ffffffffffffffffffffffffffffffffffffffff1681565b60016020528060005260406000206000915090505481565b8173ffffffffffffffffffffffffffffffffffffffff163373ffffffffffffffffffffffffffffffffffffffff16036101bc576040517f08c379a00000000000000000000000000000000000000000000000000000000081526004016101b3906106d4565b60405180910390fd5b600160003373ffffffffffffffffffffffffffffffffffffffff1673ffffffffffffffffffffffffffffffffffffffff168152602001908152602001600020548111156102815780600160003373ffffffffffffffffffffffffffffffffffffffff1673ffffffffffffffffffffffffffffffffffffffff168152602001908152602001600020546040517f0f2ecb250000000000000000000000000000000000000000000000000000000081526004016102789291906106f4565b60405180910390fd5b80600160003373ffffffffffffffffffffffffffffffffffffffff1673ffffffffffffffffffffffffffffffffffffffff16815260200190815260200160002060008282546102d0919061074c565b9250508190555080600160008473ffffffffffffffffffffffffffffffffffffffff1673ffffffffffffffffffffffffffffffffffffffff16815260200190815260200160002060008282546103269190610780565b925050819055505050565b6000600160008373ffffffffffffffffffffffffffffffffffffffff1673ffffffffffffffffffffffffffffffffffffffff168152602001908152602001600020549050919050565b60008054906101000a900473ffffffffffffffffffffffffffffffffffffffff1673ffffffffffffffffffffffffffffffffffffffff163373ffffffffffffffffffffffffffffffffffffffff1614610408576040517f08c379a00000000000000000000000000000000000000000000000000000000081526004016103ff90610800565b60405180910390fd5b80600160008060009054906101000a900473ffffffffffffffffffffffffffffffffffffffff1673ffffffffffffffffffffffffffffffffffffffff1673ffffffffffffffffffffffffffffffffffffffff16815260200190815260200160002060008282546104789190610780565b9250508190555060008054906101000a900473ffffffffffffffffffffffffffffffffffffffff1673ffffffffffffffffffffffffffffffffffffffff167faca675004c66aff66f6e84aac634806e6c3550b1a6ba29fc8e1c1471ad1babf1826040516104e591906105c3565b60405180910390a250565b600073ffffffffffffffffffffffffffffffffffffffff82169050919050565b600061051b826104f0565b9050919050565b61052b81610510565b82525050565b60006020820190506105466000830184610522565b92915050565b600080fd5b61055a81610510565b811461056557600080fd5b50565b60008135905061057781610551565b92915050565b6000602082840312156105935761059261054c565b5b60006105a184828501610568565b91505092915050565b6000819050919050565b6105bd816105aa565b82525050565b60006020820190506105d860008301846105b4565b92915050565b6105e7816105aa565b81146105f257600080fd5b50565b600081359050610604816105de565b92915050565b600080604083850312156106215761062061054c565b5b600061062f85828601610568565b9250506020610640858286016105f5565b9150509250929050565b6000602082840312156106605761065f61054c565b5b600061066e848285016105f5565b91505092915050565b600082825260208201905092915050565b7f53656e64657220616e642072656365697665722063616e27742073616d652e00600082015250565b60006106be601f83610677565b91506106c982610688565b602082019050919050565b600060208201905081810360008301526106ed816106b1565b9050919050565b600060408201905061070960008301856105b4565b61071660208301846105b4565b9392505050565b7f4e487b7100000000000000000000000000000000000000000000000000000000600052601160045260246000fd5b6000610757826105aa565b9150610762836105aa565b925082820390508181111561077a5761077961071d565b5b92915050565b600061078b826105aa565b9150610796836105aa565b92508282019050808211156107ae576107ad61071d565b5b92915050565b7f416c6c6f7720666f72206f776e65720000000000000000000000000000000000600082015250565b60006107ea600f83610677565b91506107f5826107b4565b602082019050919050565b60006020820190508181036000830152610819816107dd565b905091905056fea2646970667358221220716163aca7276eb418aa18210fd376c998d75f68c202bd3be1b430e4729e2f0464736f6c63430008130033",
  "immutableReferences": {},
  "source": "// SPDX-License-Identifier: UNLICENSED\r\n\r\npragma solidity >=0.4.0 <0.9.0;\r\n\r\ncontract Token {\r\n    address public minter;\r\n    mapping(address => uint) public balances;\r\n\r\n    constructor() {\r\n        minter = msg.sender;\r\n        balances[msg.sender] = 100;\r\n    }\r\n\r\n    // create event\r\n    event BalanceSet(address indexed account, uint newBalance);\r\n    event FundsSent(\r\n        address indexed sender,\r\n        address indexed receiver,\r\n        uint amount\r\n    );\r\n\r\n    // create modifier\r\n    modifier isOwner() {\r\n        require(msg.sender == minter, \"Allow for owner\");\r\n        _;\r\n    }\r\n\r\n    // set balance\r\n    function setBalance(uint amount) public isOwner {\r\n        balances[minter] += amount;\r\n        emit BalanceSet(minter, amount);\r\n    }\r\n\r\n    // get balance\r\n    function getBalance(address wallet) public view returns (uint) {\r\n        return balances[wallet];\r\n    }\r\n\r\n    // generate custom error\r\n    error balanceError(uint request, uint available);\r\n\r\n    // send balance\r\n    function send(address receiver, uint amount) public {\r\n        if (msg.sender == receiver) {\r\n            revert(\"Sender and receiver can't same.\");\r\n        }\r\n        // check balance is exist\r\n        if (amount > balances[msg.sender]) {\r\n            revert balanceError({\r\n                request: amount,\r\n                available: balances[msg.sender]\r\n            });\r\n        }\r\n        balances[msg.sender] -= amount;\r\n        balances[receiver] += amount;\r\n    }\r\n}\r\n",
  "sourcePath": "C:\\Users\\shami\\Downloads\\Project\\Blockchain\\project-template\\contracts\\Token.sol",
  "compiler": {
    "name": "solc",
    "version": "0.8.19+commit.7dd6d404.Emscripten.clang"
  },
  "schemaVersion": "3.4.15",
  "updatedAt": "2023-08-21T10:48:59.059Z",
  "networkType": "ethereum",
  "devdoc": {
    "kind": "dev",
    "methods": {},
    "version": 1
  },
  "userdoc": {
    "kind": "user",
    "methods": {},
    "version": 1
  }
}